:100000000C945E000C9486000C9486000C94860080
:100010000C9486000C9486000C9486000C94860048
:100020000C9486000C9486000C9486000C94860038
:100030000C9486000C9486000C9486000C94860028
:100040000C9460030C9486000C942E030C9408030B
:100050000C9486000C9486000C9486000C94860008
:100060000C9486000C9486000000000024002700F9
:100070002A0000000000250028002B0004040404CE
:100080000404040402020202020203030303030342
:10009000010204081020408001020408102001021F
:1000A00004081020000000080002010000030407FB
:1000B0000000000000000000AA031E0511241FBE5E
:1000C000CFEFD8E0DEBFCDBF21E0A2E3B1E001C0B9
:1000D0001D92AB3FB207E1F711E0A0E0B1E0ECED1B
:1000E000FEE002C005900D92A233B107D9F710E0EF
:1000F000CDE5D0E004C02197FE010E946905CC3512
:10010000D107C9F70E9472040C9461070C94000097
:10011000E1EBF0E02491EDE9F0E09491E9E8F0E022
:10012000E491EE23C9F0222339F0233001F1A8F441
:10013000213019F1223029F1F0E0EE0FFF1FEE58C7
:10014000FF4FA591B4912FB7F894EC91811126C07F
:1001500090959E239C932FBF08952730A9F02830B7
:10016000C9F0243049F7209180002F7D03C02091F1
:1001700080002F7720938000DFCF24B52F7724BD18
:10018000DBCF24B52F7DFBCF2091B0002F772093BC
:10019000B000D2CF2091B0002F7DF9CF9E2BDACFC7
:1001A000AF92BF92CF92DF92EF92FF920F931F9385
:1001B000CF93DF936C017B018B01040F151FEB01C3
:1001C0005E01AE18BF08C017D10759F06991D6017A
:1001D000ED91FC910190F081E02DC6010995892BEC
:1001E00079F7C501DF91CF911F910F91FF90EF90AB
:1001F000DF90CF90BF90AF900895FC01538D448D58
:10020000252F30E0842F90E0821B930B541710F0C1
:10021000CF96089501970895FC01918D828D9817CE
:1002200061F0A28DAE0FBF2FB11D5D968C91928DA6
:100230009F5F9F73928F90E008958FEF9FEF0895D7
:10024000FC01918D828D981731F0828DE80FF11DA0
:10025000858D90E008958FEF9FEF0895FC01918DBB
:10026000228D892F90E0805C9F4F821B91098F73B4
:10027000992708958CE391E00E942E0121E0892BBB
:1002800009F420E0822F0895FC01A48DA80FB92F56
:10029000B11DA35ABF4F2C91848D90E001968F73AE
:1002A0009927848FA689B7892C93A089B1898C91CD
:1002B000837080648C93938D848D981306C002881C
:1002C000F389E02D80818F7D80830895EF92FF92E6
:1002D0000F931F93CF93DF93EC0181E0888F9B8D69
:1002E0008C8D98131AC0E889F989808185FF15C023
:1002F0009FB7F894EE89FF896083E889F989808146
:100300008370806480839FBF81E090E0DF91CF9114
:100310001F910F91FF90EF900895F62E0B8D10E036
:100320000F5F1F4F0F731127E02E8C8D8E110CC0A5
:100330000FB607FCFACFE889F989808185FFF5CFF0
:10034000CE010E944401F1CFEB8DEC0FFD2FF11D8A
:10035000E35AFF4FF0829FB7F8940B8FEA89FB892D
:1003600080818062CFCFCF93DF93EC01888D88238B
:10037000B9F0AA89BB89E889F9898C9185FD03C008
:10038000808186FD0DC00FB607FCF7CF8C9185FFED
:10039000F2CF808185FFEDCFCE010E944401E9CFED
:1003A000DF91CF9108953FB7F894809138019091F3
:1003B0003901A0913A01B0913B0126B5A89B05C037
:1003C0002F3F19F00196A11DB11D3FBFBA2FA92FD4
:1003D000982F8827BC01CD01620F711D811D911DD1
:1003E00042E0660F771F881F991F4A95D1F708953D
:1003F0008F929F92AF92BF92CF92DF92EF92FF9235
:100400000E94D3014B015C0184EFC82EDD24D394FC
:10041000E12CF12C0E94D301681979098A099B0902
:10042000683E734081059105A8F321E0C21AD10806
:10043000E108F10888EE880E83E0981EA11CB11C2B
:10044000C114D104E104F10429F7FF90EF90DF908B
:10045000CF90BF90AF909F908F900895CF93DF93F0
:10046000FC0101900020E9F73197AF01481B590BBF
:10047000BC018CE391E00E94D000EC0142E050E02E
:1004800068E171E08CE391E00E94D0008C0F9D1F29
:10049000DF91CF9108950F931F93CF93DF93EC01DA
:1004A00088819981009759F02A813B812617370767
:1004B00030F081E0DF91CF911F910F9108958B0172
:1004C0006F5F7F4F0E949406009759F0998388834D
:1004D0001B830A832C813D81232B59F7FC01108259
:1004E000E8CF80E0E7CF0F931F93CF93DF9300D047
:1004F000CDB7DEB78CE391E00E942E01892B09F481
:100500007AC08CE391E00E940C0189831A820091E9
:10051000E1011091E2010F5F1F4FB8018DED91E0F5
:100520000E944B02882399F02091DD013091DE0179
:100530008091E1019091E201BE016F5F7F4F820FD8
:10054000931F0E945A071093E2010093E10140912A
:10055000E1015091E201CA0101978417950730F437
:10056000E091DD01F091DE013097C1F5109232018A
:10057000E2E3F1E080818A3009F0BCCF6091DD01D7
:100580007091DE018CE391E00E94D00070E060E0A9
:100590008DED91E00E944B022091DD013091DE0152
:1005A00081111FC02115310519F0C9010E940B06E8
:1005B0001092DE011092DD011092E2011092E10131
:1005C0001092E0011092DF018BE191E00F900F900B
:1005D000DF91CF911F910F910C942E02E80FF91F1C
:1005E000C9CF1092E2011092E1016AE171E0C90104
:1005F0000E945A07E9CF0F900F90DF91CF911F9182
:100600000F9108950E943A0181110C94730208958C
:100610001F920F920FB60F9211242F933F934F9377
:100620005F936F937F938F939F93AF93BF93EF935A
:10063000FF938CE391E00E944401FF91EF91BF9101
:10064000AF919F918F917F916F915F914F913F916A
:100650002F910F900FBE0F901F9018951F920F9221
:100660000FB60F9211242F938F939F93EF93FF93C5
:10067000E0914C01F0914D018081E0915201F091A7
:10068000530182FD1BC09081809155018F5F8F7354
:1006900020915601821741F0E0915501F0E0E45CB1
:1006A000FE4F958F80935501FF91EF919F918F9110
:1006B0002F910F900FBE0F901F9018958081F4CF4F
:1006C0001F920F920FB60F9211242F933F938F9387
:1006D0009F93AF93BF938091340190913501A09186
:1006E0003601B09137013091330123E0230F2D37CC
:1006F00058F50196A11DB11D20933301809334015B
:1007000090933501A0933601B09337018091380161
:1007100090913901A0913A01B0913B010196A11D40
:10072000B11D8093380190933901A0933A01B093A1
:100730003B01BF91AF919F918F913F912F910F906E
:100740000FBE0F901F90189526E8230F0296A11D4B
:10075000B11DD2CF0F931F93CF93DF93CDB7DEB7E9
:100760002A970FB6F894DEBF0FBECDBF10923F019F
:1007700010923E0188EE93E0A0E0B0E0809340014B
:1007800090934101A0934201B09343018AE091E02C
:1007900090933D0180933C0185EC90E0909349015A
:1007A0008093480184EC90E090934B0180934A0140
:1007B00080EC90E090934D0180934C0181EC90E0AF
:1007C00090934F0180934E0182EC90E09093510101
:1007D0008093500186EC90E09093530180935201F6
:1007E0001092550110925601109257011092580123
:1007F0008AE090E00E946F058C019093EE01809357
:10080000ED0185E090E09093F0018093EF0110926C
:10081000F2011092F1018FEF9FEF9093F40180931A
:10082000F3011092F6011092F5018AE0EDEEF1E08D
:10083000DE01119601900D928A95E1F71092DA018E
:100840001092D9011092DC011092DB011092DE01AE
:100850001092DD011092E0011092DF011092E2018E
:100860001092E10170E060E08DED91E00E944B029A
:100870002091DD013091DE0181112AC02115310561
:1008800019F0C9010E940B061092DE011092DD01E1
:100890001092E2011092E1011092E0011092DF014A
:1008A0001A8309838AE0FE013196A3EEB1E001903C
:1008B0000D928A95E1F7C8012A960FB6F894DEBF2B
:1008C0000FBECDBFDF91CF911F910F910C940B06FE
:1008D0001092E2011092E1016AE171E0C9010E9407
:1008E0005A07DECF789484B5826084BD84B5816078
:1008F00084BD85B5826085BD85B5816085BD8091EB
:100900006E00816080936E00109281008091810062
:10091000826080938100809181008160809381005A
:10092000809180008160809380008091B10084601C
:100930008093B1008091B00081608093B00080917D
:100940007A00846080937A0080917A00826080933C
:100950007A0080917A00816080937A0080917A0099
:10096000806880937A001092C100EDE9F0E0249154
:10097000E9E8F0E08491882399F090E0880F991FCE
:10098000FC01E859FF4FA591B491FC01EE58FF4FCF
:10099000859194918FB7F894EC91E22BEC938FBFF3
:1009A000C3E0D0E081E00E9488000E94F80180E06E
:1009B0000E9488000E94F8012197A1F7E0914C0164
:1009C000F0914D0182E08083E0914801F09149016E
:1009D0001082E0914A01F0914B018FEC80831092DC
:1009E0005401E0915001F091510186E08083E09143
:1009F0004E01F0914F01808180618083E0914E0132
:100A0000F0914F01808188608083E0914E01F091E8
:100A10004F01808180688083E0914E01F0914F0109
:100A200080818F7D80838FE191E00E942E020E9461
:100A30003A018823E1F30E947302F9CF8091E30128
:100A40009091E4010E940B068091DD019091DE01FE
:100A5000009711F00E940B068091ED019091EE013C
:100A60000C940B062F923F924F925F926F927F925F
:100A70008F929F92AF92BF92CF92DF92EF92FF92AE
:100A80000F931F93CF93DF93CDB7DEB7CA1BDB0B5A
:100A90000FB6F894DEBF0FBECDBF09942A883988FF
:100AA00048885F846E847D848C849B84AA84B98406
:100AB000C884DF80EE80FD800C811B81AA81B98112
:100AC000CE0FD11D0FB6F894DEBF0FBECDBFED0126
:100AD0000895EE0FFF1F0590F491E02D09940F93F8
:100AE0001F93CF93DF938230910510F482E090E062
:100AF000E091F901F091FA0130E020E0B0E0A0E0EF
:100B0000309799F42115310509F44AC0281B390B97
:100B100024303105D8F58A819B816115710589F1F1
:100B2000FB0193838283FE0111C0408151810281C8
:100B3000138148175907E0F04817590799F410979F
:100B400061F012960C93129713961C933296CF0174
:100B5000DF91CF911F910F9108950093F9011093A8
:100B6000FA01F4CF2115310551F04217530738F03F
:100B7000A901DB019A01BD01DF01F801C1CFEF013D
:100B8000F9CF9093FA018093F901CDCFFE01E20FE6
:100B9000F31F819391932250310939832883D7CF52
:100BA0002091F7013091F801232B41F420910201AB
:100BB000309103013093F8012093F7012091000157
:100BC000309101012115310541F42DB73EB7409117
:100BD000040150910501241B350BE091F701F091C0
:100BE000F801E217F307A0F42E1B3F0B2817390773
:100BF00078F0AC014E5F5F4F2417350748F04E0F79
:100C00005F1F5093F8014093F701819391939FCF19
:100C1000F0E0E0E09CCFCF93DF930097E9F0FC0198
:100C2000329713821282A091F901B091FA01ED017D
:100C300030E020E01097A1F420813181820F931FD2
:100C40002091F7013091F8012817390709F061C0A8
:100C5000F093F801E093F701DF91CF910895EA0155
:100C6000CE17DF07E8F54A815B819E0141155105EA
:100C7000B1F7E901FB83EA8349915991C40FD51F6C
:100C8000EC17FD0761F4808191810296840F951F16
:100C9000E90199838883828193819B838A83F0E031
:100CA000E0E012968D919C9113970097B9F52D91E4
:100CB0003C911197CD010296820F931F2091F7016D
:100CC0003091F8012817390739F6309751F510920D
:100CD000FA011092F901B093F801A093F701BCCF8B
:100CE000D383C28340815181840F951FC817D907D0
:100CF00061F44E5F5F4F88819981480F591F51837E
:100D000040838A819B81938382832115310509F079
:100D1000B0CFF093FA01E093F9019ECFFD01DC0121
:100D2000C0CF13821282D7CFB0E0A0E0EAE9F6E0AC
:100D30000C9434058C01009751F4CB010E946F058F
:100D40008C01C801CDB7DEB7E0E10C945005FC0181
:100D5000E60FF71F9C0122503109E217F30708F450
:100D60009DC0D901CD91DC911197C617D70798F096
:100D7000C530D10530F3CE0104978617970708F3E5
:100D8000C61BD70B2297C193D1936D937C93CF0150
:100D90000E940B06D6CF5B01AC1ABD0A4C018C0E2B
:100DA0009D1EA091F901B091FA01512C412CF12C1A
:100DB000E12C109731F58091F7019091F801881599
:100DC000990509F05CC04616570608F058C0809196
:100DD000000190910101009741F48DB79EB74091B9
:100DE000040150910501841B950BE817F90708F0E1
:100DF00055C0F093F801E093F701F9017183608326
:100E0000A0CF8D919C91119712966C90129713968A
:100E10007C901397A815B90559F56C0142E0C40EF2
:100E2000D11CCA14DB0420F1AC014A195B09DA01B8
:100E30001296159780F06282738251834083D901A4
:100E40006D937C93E114F10471F0D7011396FC9338
:100E5000EE93129776CF22968C0F9D1FF901918306
:100E60008083F301EFCFF093FA01E093F90169CFAA
:100E70004816590608F42C017D01D3019ACFCB0105
:100E80000E946F057C01009749F0AE01B8010E94F5
:100E90005107C8010E940B06870153CF10E000E004
:100EA00050CFFB01DC0102C001900D924150504037
:100EB000D8F70895FB01DC0101900D920020E1F7C5
:100EC000089510E0CDE5D0E004C0FE010E94690560
:0C0ED0002196CE35D107C9F7F894FFCF6A
:100EDC000000FB018000000000006601D000FD0056
:100EEC00B3012E010C0120010D0A00456E64004176
:100EFC00726475696E6F2069732072756E6E696E9F
:020F0C0067007C
:00000001FF
